{
  "contractName": "TestGenerator",
  "abi": [
    {
      "constant": true,
      "inputs": [],
      "name": "cauid",
      "outputs": [
        {
          "name": "",
          "type": "bytes32"
        }
      ],
      "payable": false,
      "stateMutability": "view",
      "type": "function"
    },
    {
      "anonymous": false,
      "inputs": [
        {
          "indexed": false,
          "name": "cauid",
          "type": "bytes32"
        },
        {
          "indexed": false,
          "name": "uid",
          "type": "uint256"
        }
      ],
      "name": "LogOfCauidGen",
      "type": "event"
    },
    {
      "constant": false,
      "inputs": [
        {
          "name": "uid",
          "type": "uint256"
        },
        {
          "name": "_plid",
          "type": "bytes32"
        },
        {
          "name": "_iid",
          "type": "bytes32"
        }
      ],
      "name": "getID",
      "outputs": [
        {
          "name": "",
          "type": "bytes32"
        }
      ],
      "payable": false,
      "stateMutability": "nonpayable",
      "type": "function"
    }
  ],
  "bytecode": "0x608060405234801561001057600080fd5b506101e9806100206000396000f30060806040526004361061004c576000357c0100000000000000000000000000000000000000000000000000000000900463ffffffff168063570edc4114610051578063f542a40814610084575b600080fd5b34801561005d57600080fd5b506100666100e9565b60405180826000191660001916815260200191505060405180910390f35b34801561009057600080fd5b506100cb60048036038101908080359060200190929190803560001916906020019092919080356000191690602001909291905050506100ef565b60405180826000191660001916815260200191505060405180910390f35b60005481565b6000600283836040518083600019166000191681526020018260001916600019168152602001925050506020604051808303816000865af1158015610138573d6000803e3d6000fd5b5050506040513d602081101561014d57600080fd5b8101908080519060200190929190505050600081600019169055507ff497893c8028bd70df4965bcea85be13c00c45624e381d9c8e9bddc96ec4fd75600054856040518083600019166000191681526020018281526020019250505060405180910390a1600054905093925050505600a165627a7a72305820469ebcf0f3bd6e40b82a4bc384fe2dc2d16e59898460b67441d9b1340d421a720029",
  "source": "pragma solidity ^0.4.20;\ncontract TestGenerator{\n   event LogOfCauidGen(bytes32 cauid,uint uid);\n   bytes32 public cauid;\nfunction getID(uint uid,bytes32 _plid, bytes32 _iid)public  returns(bytes32){\n    cauid = sha256(_plid, _iid);\n    LogOfCauidGen(cauid,uid);\n    return(cauid);    \n}\n}",
  "sourcePath": "/home/bikeshrestha/awesomeProject/Blockchaintest/truffle/contracts/TestGenerator.sol",
  "compiler": {
    "name": "solc",
    "version": "0.4.24+commit.e67f0147.Emscripten.clang"
  },
  "schemaVersion": "2.0.1",
  "updatedAt": "2018-12-14T13:53:10.443Z"
}